{
  "contractName": "QuizManager",
  "address": "0xc378d0cac90ee1d296cb6c964751b3913a4ad43f",
  "abi": [
    {
      "inputs": [],
      "stateMutability": "nonpayable",
      "type": "constructor"
    },
    {
      "anonymous": false,
      "inputs": [
        {
          "indexed": true,
          "internalType": "address",
          "name": "owner",
          "type": "address"
        },
        {
          "indexed": true,
          "internalType": "address",
          "name": "spender",
          "type": "address"
        },
        {
          "indexed": false,
          "internalType": "uint256",
          "name": "value",
          "type": "uint256"
        }
      ],
      "name": "Approval",
      "type": "event"
    },
    {
      "anonymous": false,
      "inputs": [
        {
          "indexed": false,
          "internalType": "uint256",
          "name": "newFee",
          "type": "uint256"
        },
        {
          "indexed": false,
          "internalType": "address",
          "name": "account",
          "type": "address"
        }
      ],
      "name": "LogChangeFee",
      "type": "event"
    },
    {
      "anonymous": false,
      "inputs": [
        {
          "indexed": false,
          "internalType": "address",
          "name": "account",
          "type": "address"
        },
        {
          "indexed": false,
          "internalType": "string",
          "name": "response",
          "type": "string"
        }
      ],
      "name": "NewResponse",
      "type": "event"
    },
    {
      "anonymous": false,
      "inputs": [
        {
          "indexed": true,
          "internalType": "address",
          "name": "previousOwner",
          "type": "address"
        },
        {
          "indexed": true,
          "internalType": "address",
          "name": "newOwner",
          "type": "address"
        }
      ],
      "name": "OwnershipTransferred",
      "type": "event"
    },
    {
      "anonymous": false,
      "inputs": [
        {
          "indexed": true,
          "internalType": "address",
          "name": "from",
          "type": "address"
        },
        {
          "indexed": true,
          "internalType": "address",
          "name": "to",
          "type": "address"
        },
        {
          "indexed": false,
          "internalType": "uint256",
          "name": "value",
          "type": "uint256"
        }
      ],
      "name": "Transfer",
      "type": "event"
    },
    {
      "inputs": [
        {
          "internalType": "address",
          "name": "owner",
          "type": "address"
        },
        {
          "internalType": "address",
          "name": "spender",
          "type": "address"
        }
      ],
      "name": "allowance",
      "outputs": [
        {
          "internalType": "uint256",
          "name": "",
          "type": "uint256"
        }
      ],
      "stateMutability": "view",
      "type": "function",
      "constant": true
    },
    {
      "inputs": [
        {
          "internalType": "address",
          "name": "spender",
          "type": "address"
        },
        {
          "internalType": "uint256",
          "name": "amount",
          "type": "uint256"
        }
      ],
      "name": "approve",
      "outputs": [
        {
          "internalType": "bool",
          "name": "",
          "type": "bool"
        }
      ],
      "stateMutability": "nonpayable",
      "type": "function"
    },
    {
      "inputs": [
        {
          "internalType": "address",
          "name": "account",
          "type": "address"
        }
      ],
      "name": "balanceOf",
      "outputs": [
        {
          "internalType": "uint256",
          "name": "",
          "type": "uint256"
        }
      ],
      "stateMutability": "view",
      "type": "function",
      "constant": true
    },
    {
      "inputs": [
        {
          "internalType": "uint256",
          "name": "amount",
          "type": "uint256"
        }
      ],
      "name": "burn",
      "outputs": [],
      "stateMutability": "nonpayable",
      "type": "function"
    },
    {
      "inputs": [
        {
          "internalType": "address",
          "name": "account",
          "type": "address"
        },
        {
          "internalType": "uint256",
          "name": "amount",
          "type": "uint256"
        }
      ],
      "name": "burnFrom",
      "outputs": [],
      "stateMutability": "nonpayable",
      "type": "function"
    },
    {
      "inputs": [],
      "name": "decimals",
      "outputs": [
        {
          "internalType": "uint8",
          "name": "",
          "type": "uint8"
        }
      ],
      "stateMutability": "view",
      "type": "function",
      "constant": true
    },
    {
      "inputs": [
        {
          "internalType": "address",
          "name": "spender",
          "type": "address"
        },
        {
          "internalType": "uint256",
          "name": "subtractedValue",
          "type": "uint256"
        }
      ],
      "name": "decreaseAllowance",
      "outputs": [
        {
          "internalType": "bool",
          "name": "",
          "type": "bool"
        }
      ],
      "stateMutability": "nonpayable",
      "type": "function"
    },
    {
      "inputs": [],
      "name": "fee",
      "outputs": [
        {
          "internalType": "uint256",
          "name": "",
          "type": "uint256"
        }
      ],
      "stateMutability": "view",
      "type": "function",
      "constant": true
    },
    {
      "inputs": [],
      "name": "frezz",
      "outputs": [
        {
          "internalType": "uint256",
          "name": "",
          "type": "uint256"
        }
      ],
      "stateMutability": "view",
      "type": "function",
      "constant": true
    },
    {
      "inputs": [
        {
          "internalType": "address",
          "name": "spender",
          "type": "address"
        },
        {
          "internalType": "uint256",
          "name": "addedValue",
          "type": "uint256"
        }
      ],
      "name": "increaseAllowance",
      "outputs": [
        {
          "internalType": "bool",
          "name": "",
          "type": "bool"
        }
      ],
      "stateMutability": "nonpayable",
      "type": "function"
    },
    {
      "inputs": [],
      "name": "name",
      "outputs": [
        {
          "internalType": "string",
          "name": "",
          "type": "string"
        }
      ],
      "stateMutability": "view",
      "type": "function",
      "constant": true
    },
    {
      "inputs": [],
      "name": "owner",
      "outputs": [
        {
          "internalType": "address",
          "name": "",
          "type": "address"
        }
      ],
      "stateMutability": "view",
      "type": "function",
      "constant": true
    },
    {
      "inputs": [],
      "name": "renounceOwnership",
      "outputs": [],
      "stateMutability": "nonpayable",
      "type": "function"
    },
    {
      "inputs": [],
      "name": "symbol",
      "outputs": [
        {
          "internalType": "string",
          "name": "",
          "type": "string"
        }
      ],
      "stateMutability": "view",
      "type": "function",
      "constant": true
    },
    {
      "inputs": [],
      "name": "totalSupply",
      "outputs": [
        {
          "internalType": "uint256",
          "name": "",
          "type": "uint256"
        }
      ],
      "stateMutability": "view",
      "type": "function",
      "constant": true
    },
    {
      "inputs": [
        {
          "internalType": "address",
          "name": "recipient",
          "type": "address"
        },
        {
          "internalType": "uint256",
          "name": "amount",
          "type": "uint256"
        }
      ],
      "name": "transfer",
      "outputs": [
        {
          "internalType": "bool",
          "name": "",
          "type": "bool"
        }
      ],
      "stateMutability": "nonpayable",
      "type": "function"
    },
    {
      "inputs": [
        {
          "internalType": "address",
          "name": "sender",
          "type": "address"
        },
        {
          "internalType": "address",
          "name": "recipient",
          "type": "address"
        },
        {
          "internalType": "uint256",
          "name": "amount",
          "type": "uint256"
        }
      ],
      "name": "transferFrom",
      "outputs": [
        {
          "internalType": "bool",
          "name": "",
          "type": "bool"
        }
      ],
      "stateMutability": "nonpayable",
      "type": "function"
    },
    {
      "inputs": [
        {
          "internalType": "address",
          "name": "newOwner",
          "type": "address"
        }
      ],
      "name": "transferOwnership",
      "outputs": [],
      "stateMutability": "nonpayable",
      "type": "function"
    },
    {
      "inputs": [
        {
          "internalType": "uint256",
          "name": "_hours",
          "type": "uint256"
        }
      ],
      "name": "changeFrezzTime",
      "outputs": [],
      "stateMutability": "nonpayable",
      "type": "function"
    },
    {
      "inputs": [
        {
          "internalType": "uint256",
          "name": "newFee",
          "type": "uint256"
        }
      ],
      "name": "changeFee",
      "outputs": [],
      "stateMutability": "nonpayable",
      "type": "function"
    },
    {
      "inputs": [],
      "name": "surveyAvailable",
      "outputs": [
        {
          "internalType": "bool",
          "name": "",
          "type": "bool"
        }
      ],
      "stateMutability": "view",
      "type": "function",
      "constant": true
    },
    {
      "inputs": [
        {
          "internalType": "string",
          "name": "response",
          "type": "string"
        }
      ],
      "name": "addSurvey",
      "outputs": [
        {
          "internalType": "bool",
          "name": "",
          "type": "bool"
        }
      ],
      "stateMutability": "nonpayable",
      "type": "function"
    }
  ],
  "bytecode": "0x6080604052610e10600755670de0b6b3a76400006008553480156200002357600080fd5b506040518060400160405280600481526020017f5155495a000000000000000000000000000000000000000000000000000000008152506040518060400160405280600481526020017f5155495a000000000000000000000000000000000000000000000000000000008152508160039080519060200190620000a8929190620001b8565b508060049080519060200190620000c1929190620001b8565b505050620000e4620000d8620000ea60201b60201c565b620000f260201b60201c565b620002cd565b600033905090565b6000600560009054906101000a900473ffffffffffffffffffffffffffffffffffffffff16905081600560006101000a81548173ffffffffffffffffffffffffffffffffffffffff021916908373ffffffffffffffffffffffffffffffffffffffff1602179055508173ffffffffffffffffffffffffffffffffffffffff168173ffffffffffffffffffffffffffffffffffffffff167f8be0079c531659141344cd1fd0a4f28419497f9722a3daafe3b4186f6b6457e060405160405180910390a35050565b828054620001c69062000297565b90600052602060002090601f016020900481019282620001ea576000855562000236565b82601f106200020557805160ff191683800117855562000236565b8280016001018555821562000236579182015b828111156200023557825182559160200191906001019062000218565b5b50905062000245919062000249565b5090565b5b80821115620002645760008160009055506001016200024a565b5090565b7f4e487b7100000000000000000000000000000000000000000000000000000000600052602260045260246000fd5b60006002820490506001821680620002b057607f821691505b60208210811415620002c757620002c662000268565b5b50919050565b6127d680620002dd6000396000f3fe608060405234801561001057600080fd5b50600436106101425760003560e01c80638da5cb5b116100b8578063cc053c5a1161007c578063cc053c5a14610379578063d16d18f714610397578063dd62ed3e146103b3578063ddca3f43146103e3578063e411306714610401578063f2fde38b1461043157610142565b80638da5cb5b146102bf57806395d89b41146102dd5780639d51c98b146102fb578063a457c2d714610319578063a9059cbb1461034957610142565b8063395093511161010a578063395093511461020157806342966c68146102315780636a1db1bf1461024d57806370a0823114610269578063715018a61461029957806379cc6790146102a357610142565b806306fdde0314610147578063095ea7b31461016557806318160ddd1461019557806323b872dd146101b3578063313ce567146101e3575b600080fd5b61014f61044d565b60405161015c91906119a7565b60405180910390f35b61017f600480360381019061017a9190611a71565b6104df565b60405161018c9190611acc565b60405180910390f35b61019d6104fd565b6040516101aa9190611af6565b60405180910390f35b6101cd60048036038101906101c89190611b11565b610507565b6040516101da9190611acc565b60405180910390f35b6101eb6105ff565b6040516101f89190611b80565b60405180910390f35b61021b60048036038101906102169190611a71565b610608565b6040516102289190611acc565b60405180910390f35b61024b60048036038101906102469190611b9b565b6106b4565b005b61026760048036038101906102629190611b9b565b6106c8565b005b610283600480360381019061027e9190611bc8565b61078e565b6040516102909190611af6565b60405180910390f35b6102a16107d6565b005b6102bd60048036038101906102b89190611a71565b61085e565b005b6102c76108d9565b6040516102d49190611c04565b60405180910390f35b6102e5610903565b6040516102f291906119a7565b60405180910390f35b610303610995565b6040516103109190611acc565b60405180910390f35b610333600480360381019061032e9190611a71565b610a00565b6040516103409190611acc565b60405180910390f35b610363600480360381019061035e9190611a71565b610aeb565b6040516103709190611acc565b60405180910390f35b610381610b09565b60405161038e9190611af6565b60405180910390f35b6103b160048036038101906103ac9190611b9b565b610b0f565b005b6103cd60048036038101906103c89190611c1f565b610be4565b6040516103da9190611af6565b60405180910390f35b6103eb610c6b565b6040516103f89190611af6565b60405180910390f35b61041b60048036038101906104169190611d94565b610c71565b6040516104289190611acc565b60405180910390f35b61044b60048036038101906104469190611bc8565b610ef4565b005b60606003805461045c90611e0c565b80601f016020809104026020016040519081016040528092919081815260200182805461048890611e0c565b80156104d55780601f106104aa576101008083540402835291602001916104d5565b820191906000526020600020905b8154815290600101906020018083116104b857829003601f168201915b5050505050905090565b60006104f36104ec610fec565b8484610ff4565b6001905092915050565b6000600254905090565b60006105148484846111bf565b6000600160008673ffffffffffffffffffffffffffffffffffffffff1673ffffffffffffffffffffffffffffffffffffffff168152602001908152602001600020600061055f610fec565b73ffffffffffffffffffffffffffffffffffffffff1673ffffffffffffffffffffffffffffffffffffffff168152602001908152602001600020549050828110156105df576040517f08c379a00000000000000000000000000000000000000000000000000000000081526004016105d690611eb0565b60405180910390fd5b6105f3856105eb610fec565b858403610ff4565b60019150509392505050565b60006012905090565b60006106aa610615610fec565b848460016000610623610fec565b73ffffffffffffffffffffffffffffffffffffffff1673ffffffffffffffffffffffffffffffffffffffff16815260200190815260200160002060008873ffffffffffffffffffffffffffffffffffffffff1673ffffffffffffffffffffffffffffffffffffffff168152602001908152602001600020546106a59190611eff565b610ff4565b6001905092915050565b6106c56106bf610fec565b82611440565b50565b6106d0610fec565b73ffffffffffffffffffffffffffffffffffffffff166106ee6108d9565b73ffffffffffffffffffffffffffffffffffffffff1614610744576040517f08c379a000000000000000000000000000000000000000000000000000000000815260040161073b90611fa1565b60405180910390fd5b806008819055507f4ca3d3d0b0722ecf3c97f521ebf0eb67c0d55314520c157ac654caba0d75290681610775610fec565b604051610783929190611fc1565b60405180910390a150565b60008060008373ffffffffffffffffffffffffffffffffffffffff1673ffffffffffffffffffffffffffffffffffffffff168152602001908152602001600020549050919050565b6107de610fec565b73ffffffffffffffffffffffffffffffffffffffff166107fc6108d9565b73ffffffffffffffffffffffffffffffffffffffff1614610852576040517f08c379a000000000000000000000000000000000000000000000000000000000815260040161084990611fa1565b60405180910390fd5b61085c6000611617565b565b60006108718361086c610fec565b610be4565b9050818110156108b6576040517f08c379a00000000000000000000000000000000000000000000000000000000081526004016108ad9061205c565b60405180910390fd5b6108ca836108c2610fec565b848403610ff4565b6108d48383611440565b505050565b6000600560009054906101000a900473ffffffffffffffffffffffffffffffffffffffff16905090565b60606004805461091290611e0c565b80601f016020809104026020016040519081016040528092919081815260200182805461093e90611e0c565b801561098b5780601f106109605761010080835404028352916020019161098b565b820191906000526020600020905b81548152906001019060200180831161096e57829003601f168201915b5050505050905090565b6000600754600960006109a6610fec565b73ffffffffffffffffffffffffffffffffffffffff1673ffffffffffffffffffffffffffffffffffffffff168152602001908152602001600020546109eb9190611eff565b42116109f85760006109fb565b60015b905090565b60008060016000610a0f610fec565b73ffffffffffffffffffffffffffffffffffffffff1673ffffffffffffffffffffffffffffffffffffffff16815260200190815260200160002060008573ffffffffffffffffffffffffffffffffffffffff1673ffffffffffffffffffffffffffffffffffffffff16815260200190815260200160002054905082811015610acc576040517f08c379a0000000000000000000000000000000000000000000000000000000008152600401610ac3906120ee565b60405180910390fd5b610ae0610ad7610fec565b85858403610ff4565b600191505092915050565b6000610aff610af8610fec565b84846111bf565b6001905092915050565b60075481565b610b17610fec565b73ffffffffffffffffffffffffffffffffffffffff16610b356108d9565b73ffffffffffffffffffffffffffffffffffffffff1614610b8b576040517f08c379a0000000000000000000000000000000000000000000000000000000008152600401610b8290611fa1565b60405180910390fd5b60008111610bce576040517f08c379a0000000000000000000000000000000000000000000000000000000008152600401610bc59061215a565b60405180910390fd5b603c81610bdb919061217a565b60078190555050565b6000600160008473ffffffffffffffffffffffffffffffffffffffff1673ffffffffffffffffffffffffffffffffffffffff16815260200190815260200160002060008373ffffffffffffffffffffffffffffffffffffffff1673ffffffffffffffffffffffffffffffffffffffff16815260200190815260200160002054905092915050565b60085481565b600060075460096000610c82610fec565b73ffffffffffffffffffffffffffffffffffffffff1673ffffffffffffffffffffffffffffffffffffffff16815260200190815260200160002054610cc79190611eff565b4211610d08576040517f08c379a0000000000000000000000000000000000000000000000000000000008152600401610cff90612220565b60405180910390fd5b610d1260066116dd565b6040518060600160405280610d25610fec565b73ffffffffffffffffffffffffffffffffffffffff16815260200183815260200142815250600a6000610d5860066116f3565b815260200190815260200160002060008201518160000160006101000a81548173ffffffffffffffffffffffffffffffffffffffff021916908373ffffffffffffffffffffffffffffffffffffffff1602179055506020820151816001019080519060200190610dc992919061186b565b5060408201518160020155905050600b6000610de3610fec565b73ffffffffffffffffffffffffffffffffffffffff1673ffffffffffffffffffffffffffffffffffffffff168152602001908152602001600020610e2760066116f3565b90806001815401808255809150506001900390600052602060002001600090919091909150554260096000610e5a610fec565b73ffffffffffffffffffffffffffffffffffffffff1673ffffffffffffffffffffffffffffffffffffffff16815260200190815260200160002081905550610eab610ea3610fec565b600854611701565b7fa5ca7b5d8e02c2e0f7ab344a7a7d19f35e721ec840e53d130182f5ddb57b63ae610ed4610fec565b83604051610ee3929190612240565b60405180910390a160019050919050565b610efc610fec565b73ffffffffffffffffffffffffffffffffffffffff16610f1a6108d9565b73ffffffffffffffffffffffffffffffffffffffff1614610f70576040517f08c379a0000000000000000000000000000000000000000000000000000000008152600401610f6790611fa1565b60405180910390fd5b600073ffffffffffffffffffffffffffffffffffffffff168173ffffffffffffffffffffffffffffffffffffffff161415610fe0576040517f08c379a0000000000000000000000000000000000000000000000000000000008152600401610fd7906122e2565b60405180910390fd5b610fe981611617565b50565b600033905090565b600073ffffffffffffffffffffffffffffffffffffffff168373ffffffffffffffffffffffffffffffffffffffff161415611064576040517f08c379a000000000000000000000000000000000000000000000000000000000815260040161105b90612374565b60405180910390fd5b600073ffffffffffffffffffffffffffffffffffffffff168273ffffffffffffffffffffffffffffffffffffffff1614156110d4576040517f08c379a00000000000000000000000000000000000000000000000000000000081526004016110cb90612406565b60405180910390fd5b80600160008573ffffffffffffffffffffffffffffffffffffffff1673ffffffffffffffffffffffffffffffffffffffff16815260200190815260200160002060008473ffffffffffffffffffffffffffffffffffffffff1673ffffffffffffffffffffffffffffffffffffffff168152602001908152602001600020819055508173ffffffffffffffffffffffffffffffffffffffff168373ffffffffffffffffffffffffffffffffffffffff167f8c5be1e5ebec7d5bd14f71427d1e84f3dd0314c0f7b2291e5b200ac8c7c3b925836040516111b29190611af6565b60405180910390a3505050565b600073ffffffffffffffffffffffffffffffffffffffff168373ffffffffffffffffffffffffffffffffffffffff16141561122f576040517f08c379a000000000000000000000000000000000000000000000000000000000815260040161122690612498565b60405180910390fd5b600073ffffffffffffffffffffffffffffffffffffffff168273ffffffffffffffffffffffffffffffffffffffff16141561129f576040517f08c379a00000000000000000000000000000000000000000000000000000000081526004016112969061252a565b60405180910390fd5b6112aa838383611861565b60008060008573ffffffffffffffffffffffffffffffffffffffff1673ffffffffffffffffffffffffffffffffffffffff16815260200190815260200160002054905081811015611330576040517f08c379a0000000000000000000000000000000000000000000000000000000008152600401611327906125bc565b60405180910390fd5b8181036000808673ffffffffffffffffffffffffffffffffffffffff1673ffffffffffffffffffffffffffffffffffffffff16815260200190815260200160002081905550816000808573ffffffffffffffffffffffffffffffffffffffff1673ffffffffffffffffffffffffffffffffffffffff16815260200190815260200160002060008282546113c39190611eff565b925050819055508273ffffffffffffffffffffffffffffffffffffffff168473ffffffffffffffffffffffffffffffffffffffff167fddf252ad1be2c89b69c2b068fc378daa952ba7f163c4a11628f55a4df523b3ef846040516114279190611af6565b60405180910390a361143a848484611866565b50505050565b600073ffffffffffffffffffffffffffffffffffffffff168273ffffffffffffffffffffffffffffffffffffffff1614156114b0576040517f08c379a00000000000000000000000000000000000000000000000000000000081526004016114a79061264e565b60405180910390fd5b6114bc82600083611861565b60008060008473ffffffffffffffffffffffffffffffffffffffff1673ffffffffffffffffffffffffffffffffffffffff16815260200190815260200160002054905081811015611542576040517f08c379a0000000000000000000000000000000000000000000000000000000008152600401611539906126e0565b60405180910390fd5b8181036000808573ffffffffffffffffffffffffffffffffffffffff1673ffffffffffffffffffffffffffffffffffffffff1681526020019081526020016000208190555081600260008282546115999190612700565b92505081905550600073ffffffffffffffffffffffffffffffffffffffff168373ffffffffffffffffffffffffffffffffffffffff167fddf252ad1be2c89b69c2b068fc378daa952ba7f163c4a11628f55a4df523b3ef846040516115fe9190611af6565b60405180910390a361161283600084611866565b505050565b6000600560009054906101000a900473ffffffffffffffffffffffffffffffffffffffff16905081600560006101000a81548173ffffffffffffffffffffffffffffffffffffffff021916908373ffffffffffffffffffffffffffffffffffffffff1602179055508173ffffffffffffffffffffffffffffffffffffffff168173ffffffffffffffffffffffffffffffffffffffff167f8be0079c531659141344cd1fd0a4f28419497f9722a3daafe3b4186f6b6457e060405160405180910390a35050565b6001816000016000828254019250508190555050565b600081600001549050919050565b600073ffffffffffffffffffffffffffffffffffffffff168273ffffffffffffffffffffffffffffffffffffffff161415611771576040517f08c379a000000000000000000000000000000000000000000000000000000000815260040161176890612780565b60405180910390fd5b61177d60008383611861565b806002600082825461178f9190611eff565b92505081905550806000808473ffffffffffffffffffffffffffffffffffffffff1673ffffffffffffffffffffffffffffffffffffffff16815260200190815260200160002060008282546117e49190611eff565b925050819055508173ffffffffffffffffffffffffffffffffffffffff16600073ffffffffffffffffffffffffffffffffffffffff167fddf252ad1be2c89b69c2b068fc378daa952ba7f163c4a11628f55a4df523b3ef836040516118499190611af6565b60405180910390a361185d60008383611866565b5050565b505050565b505050565b82805461187790611e0c565b90600052602060002090601f01602090048101928261189957600085556118e0565b82601f106118b257805160ff19168380011785556118e0565b828001600101855582156118e0579182015b828111156118df5782518255916020019190600101906118c4565b5b5090506118ed91906118f1565b5090565b5b8082111561190a5760008160009055506001016118f2565b5090565b600081519050919050565b600082825260208201905092915050565b60005b8381101561194857808201518184015260208101905061192d565b83811115611957576000848401525b50505050565b6000601f19601f8301169050919050565b60006119798261190e565b6119838185611919565b935061199381856020860161192a565b61199c8161195d565b840191505092915050565b600060208201905081810360008301526119c1818461196e565b905092915050565b6000604051905090565b600080fd5b600080fd5b600073ffffffffffffffffffffffffffffffffffffffff82169050919050565b6000611a08826119dd565b9050919050565b611a18816119fd565b8114611a2357600080fd5b50565b600081359050611a3581611a0f565b92915050565b6000819050919050565b611a4e81611a3b565b8114611a5957600080fd5b50565b600081359050611a6b81611a45565b92915050565b60008060408385031215611a8857611a876119d3565b5b6000611a9685828601611a26565b9250506020611aa785828601611a5c565b9150509250929050565b60008115159050919050565b611ac681611ab1565b82525050565b6000602082019050611ae16000830184611abd565b92915050565b611af081611a3b565b82525050565b6000602082019050611b0b6000830184611ae7565b92915050565b600080600060608486031215611b2a57611b296119d3565b5b6000611b3886828701611a26565b9350506020611b4986828701611a26565b9250506040611b5a86828701611a5c565b9150509250925092565b600060ff82169050919050565b611b7a81611b64565b82525050565b6000602082019050611b956000830184611b71565b92915050565b600060208284031215611bb157611bb06119d3565b5b6000611bbf84828501611a5c565b91505092915050565b600060208284031215611bde57611bdd6119d3565b5b6000611bec84828501611a26565b91505092915050565b611bfe816119fd565b82525050565b6000602082019050611c196000830184611bf5565b92915050565b60008060408385031215611c3657611c356119d3565b5b6000611c4485828601611a26565b9250506020611c5585828601611a26565b9150509250929050565b600080fd5b600080fd5b7f4e487b7100000000000000000000000000000000000000000000000000000000600052604160045260246000fd5b611ca18261195d565b810181811067ffffffffffffffff82111715611cc057611cbf611c69565b5b80604052505050565b6000611cd36119c9565b9050611cdf8282611c98565b919050565b600067ffffffffffffffff821115611cff57611cfe611c69565b5b611d088261195d565b9050602081019050919050565b82818337600083830152505050565b6000611d37611d3284611ce4565b611cc9565b905082815260208101848484011115611d5357611d52611c64565b5b611d5e848285611d15565b509392505050565b600082601f830112611d7b57611d7a611c5f565b5b8135611d8b848260208601611d24565b91505092915050565b600060208284031215611daa57611da96119d3565b5b600082013567ffffffffffffffff811115611dc857611dc76119d8565b5b611dd484828501611d66565b91505092915050565b7f4e487b7100000000000000000000000000000000000000000000000000000000600052602260045260246000fd5b60006002820490506001821680611e2457607f821691505b60208210811415611e3857611e37611ddd565b5b50919050565b7f45524332303a207472616e7366657220616d6f756e742065786365656473206160008201527f6c6c6f77616e6365000000000000000000000000000000000000000000000000602082015250565b6000611e9a602883611919565b9150611ea582611e3e565b604082019050919050565b60006020820190508181036000830152611ec981611e8d565b9050919050565b7f4e487b7100000000000000000000000000000000000000000000000000000000600052601160045260246000fd5b6000611f0a82611a3b565b9150611f1583611a3b565b9250827fffffffffffffffffffffffffffffffffffffffffffffffffffffffffffffffff03821115611f4a57611f49611ed0565b5b828201905092915050565b7f4f776e61626c653a2063616c6c6572206973206e6f7420746865206f776e6572600082015250565b6000611f8b602083611919565b9150611f9682611f55565b602082019050919050565b60006020820190508181036000830152611fba81611f7e565b9050919050565b6000604082019050611fd66000830185611ae7565b611fe36020830184611bf5565b9392505050565b7f45524332303a206275726e20616d6f756e74206578636565647320616c6c6f7760008201527f616e636500000000000000000000000000000000000000000000000000000000602082015250565b6000612046602483611919565b915061205182611fea565b604082019050919050565b6000602082019050818103600083015261207581612039565b9050919050565b7f45524332303a2064656372656173656420616c6c6f77616e63652062656c6f7760008201527f207a65726f000000000000000000000000000000000000000000000000000000602082015250565b60006120d8602583611919565b91506120e38261207c565b604082019050919050565b60006020820190508181036000830152612107816120cb565b9050919050565b7f4d7573742062652067726561746572207468616e207a65726f00000000000000600082015250565b6000612144601983611919565b915061214f8261210e565b602082019050919050565b6000602082019050818103600083015261217381612137565b9050919050565b600061218582611a3b565b915061219083611a3b565b9250817fffffffffffffffffffffffffffffffffffffffffffffffffffffffffffffffff04831182151516156121c9576121c8611ed0565b5b828202905092915050565b7f20617761697420666f72206e6577207375727665790000000000000000000000600082015250565b600061220a601583611919565b9150612215826121d4565b602082019050919050565b60006020820190508181036000830152612239816121fd565b9050919050565b60006040820190506122556000830185611bf5565b8181036020830152612267818461196e565b90509392505050565b7f4f776e61626c653a206e6577206f776e657220697320746865207a65726f206160008201527f6464726573730000000000000000000000000000000000000000000000000000602082015250565b60006122cc602683611919565b91506122d782612270565b604082019050919050565b600060208201905081810360008301526122fb816122bf565b9050919050565b7f45524332303a20617070726f76652066726f6d20746865207a65726f2061646460008201527f7265737300000000000000000000000000000000000000000000000000000000602082015250565b600061235e602483611919565b915061236982612302565b604082019050919050565b6000602082019050818103600083015261238d81612351565b9050919050565b7f45524332303a20617070726f766520746f20746865207a65726f20616464726560008201527f7373000000000000000000000000000000000000000000000000000000000000602082015250565b60006123f0602283611919565b91506123fb82612394565b604082019050919050565b6000602082019050818103600083015261241f816123e3565b9050919050565b7f45524332303a207472616e736665722066726f6d20746865207a65726f20616460008201527f6472657373000000000000000000000000000000000000000000000000000000602082015250565b6000612482602583611919565b915061248d82612426565b604082019050919050565b600060208201905081810360008301526124b181612475565b9050919050565b7f45524332303a207472616e7366657220746f20746865207a65726f206164647260008201527f6573730000000000000000000000000000000000000000000000000000000000602082015250565b6000612514602383611919565b915061251f826124b8565b604082019050919050565b6000602082019050818103600083015261254381612507565b9050919050565b7f45524332303a207472616e7366657220616d6f756e742065786365656473206260008201527f616c616e63650000000000000000000000000000000000000000000000000000602082015250565b60006125a6602683611919565b91506125b18261254a565b604082019050919050565b600060208201905081810360008301526125d581612599565b9050919050565b7f45524332303a206275726e2066726f6d20746865207a65726f2061646472657360008201527f7300000000000000000000000000000000000000000000000000000000000000602082015250565b6000612638602183611919565b9150612643826125dc565b604082019050919050565b600060208201905081810360008301526126678161262b565b9050919050565b7f45524332303a206275726e20616d6f756e7420657863656564732062616c616e60008201527f6365000000000000000000000000000000000000000000000000000000000000602082015250565b60006126ca602283611919565b91506126d58261266e565b604082019050919050565b600060208201905081810360008301526126f9816126bd565b9050919050565b600061270b82611a3b565b915061271683611a3b565b92508282101561272957612728611ed0565b5b828203905092915050565b7f45524332303a206d696e7420746f20746865207a65726f206164647265737300600082015250565b600061276a601f83611919565b915061277582612734565b602082019050919050565b600060208201905081810360008301526127998161275d565b905091905056fea2646970667358221220f054067985eff9ca260f9b6e25ce49374d9745f647daf9bc6ad0c7d46080e44c64736f6c63430008090033",
  "immutableReferences": {},
  "source": "// SPDX-License-Identifier: MIT\npragma solidity ^0.8.2;\n\nimport \"@openzeppelin/contracts/utils/Counters.sol\";\nimport \"@openzeppelin/contracts/access/Ownable.sol\";\nimport \"@openzeppelin/contracts/token/ERC20/ERC20.sol\";\nimport \"@openzeppelin/contracts/token/ERC20/extensions/ERC20Burnable.sol\";\n\n/// @title QuizManager\n/// @author Roberto Garca.\n/// @notice Smart Contract for the control of tokens through a survey\ncontract QuizManager is ERC20, ERC20Burnable, Ownable {\n\n    /// @dev libraries for utils tools \n    using Counters for Counters.Counter;\n    /// @notice control for index responses\n    Counters.Counter private id;\n    /// @dev timer for new survey\n    uint public frezz = 1 * 1 hours;\n    /// @notice There is a fee    \n    uint public fee =  1 * 10 ** 18;\n\n    struct Response{\n        address owner;\n        string data;\n        uint datetime;\n    }\n    /// @notice Emitted when a change is made to the quota.\n    /// @param newFee new declared quote\n    /// @param account account modifying the quota\n    event LogChangeFee(uint256 newFee, address account);\n    /// @notice Emmited when a user add new response.\n    /// @param account account for response survey\n    /// @param response survey data\n    event NewResponse(address account, string response);\n\n    mapping (address=>uint) lastSurveyDate;\n    mapping (uint=>Response) responses;\n    mapping (address=>uint[]) responsesByOwner;\n    constructor() ERC20(\"QUIZ\", \"QUIZ\") {}\n\n    /// @notice changes the time lag between surveys\n    /// @param _hours time in hours\n    function changeFrezzTime(uint _hours) \n        public\n        onlyOwner\n    {\n        require(_hours > 0, \"Must be greater than zero\");\n        frezz = _hours * 1 minutes;\n    }\n    /// @notice Update fee   \n    /// @param newFee new fee\n    function changeFee(uint newFee)\n        public\n        onlyOwner\n    {   \n        fee = newFee;\n        emit LogChangeFee(newFee, _msgSender());\n    }\n    /// @dev validates if the user can perform a survey\n    /// @return bool boolean status\n    function surveyAvailable()\n        public \n        view\n        returns(bool)\n    {\n        return block.timestamp > lastSurveyDate[_msgSender()] + frezz ? true  : false;\n    }\n    /// @notice add responses add state.\n    /// @param response survey data.\n    /// @return bool boolean status\n    function addSurvey(string memory response)\n        public \n        returns(bool)    \n    {\n        require(block.timestamp > lastSurveyDate[_msgSender()] + frezz , \" await for new survey\");\n        \n        id.increment();\n        \n        responses[id.current()] = Response({\n            owner: _msgSender(),\n            data: response,\n            datetime: block.timestamp\n        });\n\n        responsesByOwner[_msgSender()].push(id.current());\n        lastSurveyDate[_msgSender()] = block.timestamp;\n\n        _mint(_msgSender(), fee);\n\n        emit NewResponse(_msgSender(), response);\n\n        return true;\n    }\n}",
  "sourcePath": "/Users/jrgarciasa/extraHours/repos/survey-challenge/contracts/QuizManager.sol",
  "compiler": {
    "name": "solc",
    "version": "0.8.9+commit.e5eed63a.Emscripten.clang"
  },
  "schemaVersion": "3.4.3",
  "updatedAt": "2022-02-28T19:53:47.090Z",
  "networkType": "ethereum",
  "devdoc": {
    "author": "Roberto Garca.",
    "events": {
      "LogChangeFee(uint256,address)": {
        "params": {
          "account": "account modifying the quota",
          "newFee": "new declared quote"
        }
      },
      "NewResponse(address,string)": {
        "params": {
          "account": "account for response survey",
          "response": "survey data"
        }
      }
    },
    "kind": "dev",
    "methods": {
      "addSurvey(string)": {
        "params": {
          "response": "survey data."
        },
        "returns": {
          "_0": "bool boolean status"
        }
      },
      "allowance(address,address)": {
        "details": "See {IERC20-allowance}."
      },
      "approve(address,uint256)": {
        "details": "See {IERC20-approve}. Requirements: - `spender` cannot be the zero address."
      },
      "balanceOf(address)": {
        "details": "See {IERC20-balanceOf}."
      },
      "burn(uint256)": {
        "details": "Destroys `amount` tokens from the caller. See {ERC20-_burn}."
      },
      "burnFrom(address,uint256)": {
        "details": "Destroys `amount` tokens from `account`, deducting from the caller's allowance. See {ERC20-_burn} and {ERC20-allowance}. Requirements: - the caller must have allowance for ``accounts``'s tokens of at least `amount`."
      },
      "changeFee(uint256)": {
        "params": {
          "newFee": "new fee"
        }
      },
      "changeFrezzTime(uint256)": {
        "params": {
          "_hours": "time in hours"
        }
      },
      "decimals()": {
        "details": "Returns the number of decimals used to get its user representation. For example, if `decimals` equals `2`, a balance of `505` tokens should be displayed to a user as `5.05` (`505 / 10 ** 2`). Tokens usually opt for a value of 18, imitating the relationship between Ether and Wei. This is the value {ERC20} uses, unless this function is overridden; NOTE: This information is only used for _display_ purposes: it in no way affects any of the arithmetic of the contract, including {IERC20-balanceOf} and {IERC20-transfer}."
      },
      "decreaseAllowance(address,uint256)": {
        "details": "Atomically decreases the allowance granted to `spender` by the caller. This is an alternative to {approve} that can be used as a mitigation for problems described in {IERC20-approve}. Emits an {Approval} event indicating the updated allowance. Requirements: - `spender` cannot be the zero address. - `spender` must have allowance for the caller of at least `subtractedValue`."
      },
      "increaseAllowance(address,uint256)": {
        "details": "Atomically increases the allowance granted to `spender` by the caller. This is an alternative to {approve} that can be used as a mitigation for problems described in {IERC20-approve}. Emits an {Approval} event indicating the updated allowance. Requirements: - `spender` cannot be the zero address."
      },
      "name()": {
        "details": "Returns the name of the token."
      },
      "owner()": {
        "details": "Returns the address of the current owner."
      },
      "renounceOwnership()": {
        "details": "Leaves the contract without owner. It will not be possible to call `onlyOwner` functions anymore. Can only be called by the current owner. NOTE: Renouncing ownership will leave the contract without an owner, thereby removing any functionality that is only available to the owner."
      },
      "surveyAvailable()": {
        "details": "validates if the user can perform a survey",
        "returns": {
          "_0": "bool boolean status"
        }
      },
      "symbol()": {
        "details": "Returns the symbol of the token, usually a shorter version of the name."
      },
      "totalSupply()": {
        "details": "See {IERC20-totalSupply}."
      },
      "transfer(address,uint256)": {
        "details": "See {IERC20-transfer}. Requirements: - `recipient` cannot be the zero address. - the caller must have a balance of at least `amount`."
      },
      "transferFrom(address,address,uint256)": {
        "details": "See {IERC20-transferFrom}. Emits an {Approval} event indicating the updated allowance. This is not required by the EIP. See the note at the beginning of {ERC20}. Requirements: - `sender` and `recipient` cannot be the zero address. - `sender` must have a balance of at least `amount`. - the caller must have allowance for ``sender``'s tokens of at least `amount`."
      },
      "transferOwnership(address)": {
        "details": "Transfers ownership of the contract to a new account (`newOwner`). Can only be called by the current owner."
      }
    },
    "stateVariables": {
      "frezz": {
        "details": "timer for new survey"
      }
    },
    "title": "QuizManager",
    "version": 1
  },
  "userdoc": {
    "events": {
      "LogChangeFee(uint256,address)": {
        "notice": "Emitted when a change is made to the quota."
      },
      "NewResponse(address,string)": {
        "notice": "Emmited when a user add new response."
      }
    },
    "kind": "user",
    "methods": {
      "addSurvey(string)": {
        "notice": "add responses add state."
      },
      "changeFee(uint256)": {
        "notice": "Update fee   "
      },
      "changeFrezzTime(uint256)": {
        "notice": "changes the time lag between surveys"
      },
      "fee()": {
        "notice": "There is a fee    "
      }
    },
    "notice": "Smart Contract for the control of tokens through a survey",
    "version": 1
  }
}