{
  "contractName": "QuizManager",
  "abi": [
    {
      "inputs": [],
      "stateMutability": "nonpayable",
      "type": "constructor"
    },
    {
      "anonymous": false,
      "inputs": [
        {
          "indexed": true,
          "internalType": "address",
          "name": "owner",
          "type": "address"
        },
        {
          "indexed": true,
          "internalType": "address",
          "name": "spender",
          "type": "address"
        },
        {
          "indexed": false,
          "internalType": "uint256",
          "name": "value",
          "type": "uint256"
        }
      ],
      "name": "Approval",
      "type": "event"
    },
    {
      "anonymous": false,
      "inputs": [
        {
          "indexed": false,
          "internalType": "uint256",
          "name": "newFee",
          "type": "uint256"
        },
        {
          "indexed": false,
          "internalType": "address",
          "name": "account",
          "type": "address"
        }
      ],
      "name": "LogChangeFee",
      "type": "event"
    },
    {
      "anonymous": false,
      "inputs": [
        {
          "indexed": false,
          "internalType": "address",
          "name": "account",
          "type": "address"
        },
        {
          "indexed": false,
          "internalType": "string",
          "name": "response",
          "type": "string"
        }
      ],
      "name": "NewResponse",
      "type": "event"
    },
    {
      "anonymous": false,
      "inputs": [
        {
          "indexed": true,
          "internalType": "address",
          "name": "previousOwner",
          "type": "address"
        },
        {
          "indexed": true,
          "internalType": "address",
          "name": "newOwner",
          "type": "address"
        }
      ],
      "name": "OwnershipTransferred",
      "type": "event"
    },
    {
      "anonymous": false,
      "inputs": [
        {
          "indexed": true,
          "internalType": "address",
          "name": "from",
          "type": "address"
        },
        {
          "indexed": true,
          "internalType": "address",
          "name": "to",
          "type": "address"
        },
        {
          "indexed": false,
          "internalType": "uint256",
          "name": "value",
          "type": "uint256"
        }
      ],
      "name": "Transfer",
      "type": "event"
    },
    {
      "inputs": [
        {
          "internalType": "address",
          "name": "owner",
          "type": "address"
        },
        {
          "internalType": "address",
          "name": "spender",
          "type": "address"
        }
      ],
      "name": "allowance",
      "outputs": [
        {
          "internalType": "uint256",
          "name": "",
          "type": "uint256"
        }
      ],
      "stateMutability": "view",
      "type": "function"
    },
    {
      "inputs": [
        {
          "internalType": "address",
          "name": "spender",
          "type": "address"
        },
        {
          "internalType": "uint256",
          "name": "amount",
          "type": "uint256"
        }
      ],
      "name": "approve",
      "outputs": [
        {
          "internalType": "bool",
          "name": "",
          "type": "bool"
        }
      ],
      "stateMutability": "nonpayable",
      "type": "function"
    },
    {
      "inputs": [
        {
          "internalType": "address",
          "name": "account",
          "type": "address"
        }
      ],
      "name": "balanceOf",
      "outputs": [
        {
          "internalType": "uint256",
          "name": "",
          "type": "uint256"
        }
      ],
      "stateMutability": "view",
      "type": "function"
    },
    {
      "inputs": [
        {
          "internalType": "uint256",
          "name": "amount",
          "type": "uint256"
        }
      ],
      "name": "burn",
      "outputs": [],
      "stateMutability": "nonpayable",
      "type": "function"
    },
    {
      "inputs": [
        {
          "internalType": "address",
          "name": "account",
          "type": "address"
        },
        {
          "internalType": "uint256",
          "name": "amount",
          "type": "uint256"
        }
      ],
      "name": "burnFrom",
      "outputs": [],
      "stateMutability": "nonpayable",
      "type": "function"
    },
    {
      "inputs": [],
      "name": "decimals",
      "outputs": [
        {
          "internalType": "uint8",
          "name": "",
          "type": "uint8"
        }
      ],
      "stateMutability": "view",
      "type": "function"
    },
    {
      "inputs": [
        {
          "internalType": "address",
          "name": "spender",
          "type": "address"
        },
        {
          "internalType": "uint256",
          "name": "subtractedValue",
          "type": "uint256"
        }
      ],
      "name": "decreaseAllowance",
      "outputs": [
        {
          "internalType": "bool",
          "name": "",
          "type": "bool"
        }
      ],
      "stateMutability": "nonpayable",
      "type": "function"
    },
    {
      "inputs": [],
      "name": "fee",
      "outputs": [
        {
          "internalType": "uint256",
          "name": "",
          "type": "uint256"
        }
      ],
      "stateMutability": "view",
      "type": "function"
    },
    {
      "inputs": [],
      "name": "frezz",
      "outputs": [
        {
          "internalType": "uint256",
          "name": "",
          "type": "uint256"
        }
      ],
      "stateMutability": "view",
      "type": "function"
    },
    {
      "inputs": [
        {
          "internalType": "address",
          "name": "spender",
          "type": "address"
        },
        {
          "internalType": "uint256",
          "name": "addedValue",
          "type": "uint256"
        }
      ],
      "name": "increaseAllowance",
      "outputs": [
        {
          "internalType": "bool",
          "name": "",
          "type": "bool"
        }
      ],
      "stateMutability": "nonpayable",
      "type": "function"
    },
    {
      "inputs": [],
      "name": "name",
      "outputs": [
        {
          "internalType": "string",
          "name": "",
          "type": "string"
        }
      ],
      "stateMutability": "view",
      "type": "function"
    },
    {
      "inputs": [],
      "name": "owner",
      "outputs": [
        {
          "internalType": "address",
          "name": "",
          "type": "address"
        }
      ],
      "stateMutability": "view",
      "type": "function"
    },
    {
      "inputs": [],
      "name": "renounceOwnership",
      "outputs": [],
      "stateMutability": "nonpayable",
      "type": "function"
    },
    {
      "inputs": [],
      "name": "symbol",
      "outputs": [
        {
          "internalType": "string",
          "name": "",
          "type": "string"
        }
      ],
      "stateMutability": "view",
      "type": "function"
    },
    {
      "inputs": [],
      "name": "totalSupply",
      "outputs": [
        {
          "internalType": "uint256",
          "name": "",
          "type": "uint256"
        }
      ],
      "stateMutability": "view",
      "type": "function"
    },
    {
      "inputs": [
        {
          "internalType": "address",
          "name": "recipient",
          "type": "address"
        },
        {
          "internalType": "uint256",
          "name": "amount",
          "type": "uint256"
        }
      ],
      "name": "transfer",
      "outputs": [
        {
          "internalType": "bool",
          "name": "",
          "type": "bool"
        }
      ],
      "stateMutability": "nonpayable",
      "type": "function"
    },
    {
      "inputs": [
        {
          "internalType": "address",
          "name": "sender",
          "type": "address"
        },
        {
          "internalType": "address",
          "name": "recipient",
          "type": "address"
        },
        {
          "internalType": "uint256",
          "name": "amount",
          "type": "uint256"
        }
      ],
      "name": "transferFrom",
      "outputs": [
        {
          "internalType": "bool",
          "name": "",
          "type": "bool"
        }
      ],
      "stateMutability": "nonpayable",
      "type": "function"
    },
    {
      "inputs": [
        {
          "internalType": "address",
          "name": "newOwner",
          "type": "address"
        }
      ],
      "name": "transferOwnership",
      "outputs": [],
      "stateMutability": "nonpayable",
      "type": "function"
    },
    {
      "inputs": [
        {
          "internalType": "uint256",
          "name": "_hours",
          "type": "uint256"
        }
      ],
      "name": "changeFrezzTime",
      "outputs": [],
      "stateMutability": "nonpayable",
      "type": "function"
    },
    {
      "inputs": [
        {
          "internalType": "uint256",
          "name": "newFee",
          "type": "uint256"
        }
      ],
      "name": "changeFee",
      "outputs": [],
      "stateMutability": "nonpayable",
      "type": "function"
    },
    {
      "inputs": [],
      "name": "surveyAvailable",
      "outputs": [
        {
          "internalType": "bool",
          "name": "",
          "type": "bool"
        }
      ],
      "stateMutability": "view",
      "type": "function"
    },
    {
      "inputs": [
        {
          "internalType": "string",
          "name": "response",
          "type": "string"
        }
      ],
      "name": "addSurvey",
      "outputs": [
        {
          "internalType": "bool",
          "name": "",
          "type": "bool"
        }
      ],
      "stateMutability": "nonpayable",
      "type": "function"
    }
  ],
  "bytecode": "0x608060405262015180600755670de0b6b3a76400006008553480156200002457600080fd5b506040518060400160405280600481526020017f5155495a000000000000000000000000000000000000000000000000000000008152506040518060400160405280600481526020017f5155495a000000000000000000000000000000000000000000000000000000008152508160039080519060200190620000a9929190620001b9565b508060049080519060200190620000c2929190620001b9565b505050620000e5620000d9620000eb60201b60201c565b620000f360201b60201c565b620002ce565b600033905090565b6000600560009054906101000a900473ffffffffffffffffffffffffffffffffffffffff16905081600560006101000a81548173ffffffffffffffffffffffffffffffffffffffff021916908373ffffffffffffffffffffffffffffffffffffffff1602179055508173ffffffffffffffffffffffffffffffffffffffff168173ffffffffffffffffffffffffffffffffffffffff167f8be0079c531659141344cd1fd0a4f28419497f9722a3daafe3b4186f6b6457e060405160405180910390a35050565b828054620001c79062000298565b90600052602060002090601f016020900481019282620001eb576000855562000237565b82601f106200020657805160ff191683800117855562000237565b8280016001018555821562000237579182015b828111156200023657825182559160200191906001019062000219565b5b5090506200024691906200024a565b5090565b5b80821115620002655760008160009055506001016200024b565b5090565b7f4e487b7100000000000000000000000000000000000000000000000000000000600052602260045260246000fd5b60006002820490506001821680620002b157607f821691505b60208210811415620002c857620002c762000269565b5b50919050565b6127d780620002de6000396000f3fe608060405234801561001057600080fd5b50600436106101425760003560e01c80638da5cb5b116100b8578063cc053c5a1161007c578063cc053c5a14610379578063d16d18f714610397578063dd62ed3e146103b3578063ddca3f43146103e3578063e411306714610401578063f2fde38b1461043157610142565b80638da5cb5b146102bf57806395d89b41146102dd5780639d51c98b146102fb578063a457c2d714610319578063a9059cbb1461034957610142565b8063395093511161010a578063395093511461020157806342966c68146102315780636a1db1bf1461024d57806370a0823114610269578063715018a61461029957806379cc6790146102a357610142565b806306fdde0314610147578063095ea7b31461016557806318160ddd1461019557806323b872dd146101b3578063313ce567146101e3575b600080fd5b61014f61044d565b60405161015c91906119a8565b60405180910390f35b61017f600480360381019061017a9190611a72565b6104df565b60405161018c9190611acd565b60405180910390f35b61019d6104fd565b6040516101aa9190611af7565b60405180910390f35b6101cd60048036038101906101c89190611b12565b610507565b6040516101da9190611acd565b60405180910390f35b6101eb6105ff565b6040516101f89190611b81565b60405180910390f35b61021b60048036038101906102169190611a72565b610608565b6040516102289190611acd565b60405180910390f35b61024b60048036038101906102469190611b9c565b6106b4565b005b61026760048036038101906102629190611b9c565b6106c8565b005b610283600480360381019061027e9190611bc9565b61078e565b6040516102909190611af7565b60405180910390f35b6102a16107d6565b005b6102bd60048036038101906102b89190611a72565b61085e565b005b6102c76108d9565b6040516102d49190611c05565b60405180910390f35b6102e5610903565b6040516102f291906119a8565b60405180910390f35b610303610995565b6040516103109190611acd565b60405180910390f35b610333600480360381019061032e9190611a72565b610a00565b6040516103409190611acd565b60405180910390f35b610363600480360381019061035e9190611a72565b610aeb565b6040516103709190611acd565b60405180910390f35b610381610b09565b60405161038e9190611af7565b60405180910390f35b6103b160048036038101906103ac9190611b9c565b610b0f565b005b6103cd60048036038101906103c89190611c20565b610be5565b6040516103da9190611af7565b60405180910390f35b6103eb610c6c565b6040516103f89190611af7565b60405180910390f35b61041b60048036038101906104169190611d95565b610c72565b6040516104289190611acd565b60405180910390f35b61044b60048036038101906104469190611bc9565b610ef5565b005b60606003805461045c90611e0d565b80601f016020809104026020016040519081016040528092919081815260200182805461048890611e0d565b80156104d55780601f106104aa576101008083540402835291602001916104d5565b820191906000526020600020905b8154815290600101906020018083116104b857829003601f168201915b5050505050905090565b60006104f36104ec610fed565b8484610ff5565b6001905092915050565b6000600254905090565b60006105148484846111c0565b6000600160008673ffffffffffffffffffffffffffffffffffffffff1673ffffffffffffffffffffffffffffffffffffffff168152602001908152602001600020600061055f610fed565b73ffffffffffffffffffffffffffffffffffffffff1673ffffffffffffffffffffffffffffffffffffffff168152602001908152602001600020549050828110156105df576040517f08c379a00000000000000000000000000000000000000000000000000000000081526004016105d690611eb1565b60405180910390fd5b6105f3856105eb610fed565b858403610ff5565b60019150509392505050565b60006012905090565b60006106aa610615610fed565b848460016000610623610fed565b73ffffffffffffffffffffffffffffffffffffffff1673ffffffffffffffffffffffffffffffffffffffff16815260200190815260200160002060008873ffffffffffffffffffffffffffffffffffffffff1673ffffffffffffffffffffffffffffffffffffffff168152602001908152602001600020546106a59190611f00565b610ff5565b6001905092915050565b6106c56106bf610fed565b82611441565b50565b6106d0610fed565b73ffffffffffffffffffffffffffffffffffffffff166106ee6108d9565b73ffffffffffffffffffffffffffffffffffffffff1614610744576040517f08c379a000000000000000000000000000000000000000000000000000000000815260040161073b90611fa2565b60405180910390fd5b806008819055507f4ca3d3d0b0722ecf3c97f521ebf0eb67c0d55314520c157ac654caba0d75290681610775610fed565b604051610783929190611fc2565b60405180910390a150565b60008060008373ffffffffffffffffffffffffffffffffffffffff1673ffffffffffffffffffffffffffffffffffffffff168152602001908152602001600020549050919050565b6107de610fed565b73ffffffffffffffffffffffffffffffffffffffff166107fc6108d9565b73ffffffffffffffffffffffffffffffffffffffff1614610852576040517f08c379a000000000000000000000000000000000000000000000000000000000815260040161084990611fa2565b60405180910390fd5b61085c6000611618565b565b60006108718361086c610fed565b610be5565b9050818110156108b6576040517f08c379a00000000000000000000000000000000000000000000000000000000081526004016108ad9061205d565b60405180910390fd5b6108ca836108c2610fed565b848403610ff5565b6108d48383611441565b505050565b6000600560009054906101000a900473ffffffffffffffffffffffffffffffffffffffff16905090565b60606004805461091290611e0d565b80601f016020809104026020016040519081016040528092919081815260200182805461093e90611e0d565b801561098b5780601f106109605761010080835404028352916020019161098b565b820191906000526020600020905b81548152906001019060200180831161096e57829003601f168201915b5050505050905090565b6000600754600960006109a6610fed565b73ffffffffffffffffffffffffffffffffffffffff1673ffffffffffffffffffffffffffffffffffffffff168152602001908152602001600020546109eb9190611f00565b42116109f85760006109fb565b60015b905090565b60008060016000610a0f610fed565b73ffffffffffffffffffffffffffffffffffffffff1673ffffffffffffffffffffffffffffffffffffffff16815260200190815260200160002060008573ffffffffffffffffffffffffffffffffffffffff1673ffffffffffffffffffffffffffffffffffffffff16815260200190815260200160002054905082811015610acc576040517f08c379a0000000000000000000000000000000000000000000000000000000008152600401610ac3906120ef565b60405180910390fd5b610ae0610ad7610fed565b85858403610ff5565b600191505092915050565b6000610aff610af8610fed565b84846111c0565b6001905092915050565b60075481565b610b17610fed565b73ffffffffffffffffffffffffffffffffffffffff16610b356108d9565b73ffffffffffffffffffffffffffffffffffffffff1614610b8b576040517f08c379a0000000000000000000000000000000000000000000000000000000008152600401610b8290611fa2565b60405180910390fd5b60008111610bce576040517f08c379a0000000000000000000000000000000000000000000000000000000008152600401610bc59061215b565b60405180910390fd5b610e1081610bdc919061217b565b60078190555050565b6000600160008473ffffffffffffffffffffffffffffffffffffffff1673ffffffffffffffffffffffffffffffffffffffff16815260200190815260200160002060008373ffffffffffffffffffffffffffffffffffffffff1673ffffffffffffffffffffffffffffffffffffffff16815260200190815260200160002054905092915050565b60085481565b600060075460096000610c83610fed565b73ffffffffffffffffffffffffffffffffffffffff1673ffffffffffffffffffffffffffffffffffffffff16815260200190815260200160002054610cc89190611f00565b4211610d09576040517f08c379a0000000000000000000000000000000000000000000000000000000008152600401610d0090612221565b60405180910390fd5b610d1360066116de565b6040518060600160405280610d26610fed565b73ffffffffffffffffffffffffffffffffffffffff16815260200183815260200142815250600a6000610d5960066116f4565b815260200190815260200160002060008201518160000160006101000a81548173ffffffffffffffffffffffffffffffffffffffff021916908373ffffffffffffffffffffffffffffffffffffffff1602179055506020820151816001019080519060200190610dca92919061186c565b5060408201518160020155905050600b6000610de4610fed565b73ffffffffffffffffffffffffffffffffffffffff1673ffffffffffffffffffffffffffffffffffffffff168152602001908152602001600020610e2860066116f4565b90806001815401808255809150506001900390600052602060002001600090919091909150554260096000610e5b610fed565b73ffffffffffffffffffffffffffffffffffffffff1673ffffffffffffffffffffffffffffffffffffffff16815260200190815260200160002081905550610eac610ea4610fed565b600854611702565b7fa5ca7b5d8e02c2e0f7ab344a7a7d19f35e721ec840e53d130182f5ddb57b63ae610ed5610fed565b83604051610ee4929190612241565b60405180910390a160019050919050565b610efd610fed565b73ffffffffffffffffffffffffffffffffffffffff16610f1b6108d9565b73ffffffffffffffffffffffffffffffffffffffff1614610f71576040517f08c379a0000000000000000000000000000000000000000000000000000000008152600401610f6890611fa2565b60405180910390fd5b600073ffffffffffffffffffffffffffffffffffffffff168173ffffffffffffffffffffffffffffffffffffffff161415610fe1576040517f08c379a0000000000000000000000000000000000000000000000000000000008152600401610fd8906122e3565b60405180910390fd5b610fea81611618565b50565b600033905090565b600073ffffffffffffffffffffffffffffffffffffffff168373ffffffffffffffffffffffffffffffffffffffff161415611065576040517f08c379a000000000000000000000000000000000000000000000000000000000815260040161105c90612375565b60405180910390fd5b600073ffffffffffffffffffffffffffffffffffffffff168273ffffffffffffffffffffffffffffffffffffffff1614156110d5576040517f08c379a00000000000000000000000000000000000000000000000000000000081526004016110cc90612407565b60405180910390fd5b80600160008573ffffffffffffffffffffffffffffffffffffffff1673ffffffffffffffffffffffffffffffffffffffff16815260200190815260200160002060008473ffffffffffffffffffffffffffffffffffffffff1673ffffffffffffffffffffffffffffffffffffffff168152602001908152602001600020819055508173ffffffffffffffffffffffffffffffffffffffff168373ffffffffffffffffffffffffffffffffffffffff167f8c5be1e5ebec7d5bd14f71427d1e84f3dd0314c0f7b2291e5b200ac8c7c3b925836040516111b39190611af7565b60405180910390a3505050565b600073ffffffffffffffffffffffffffffffffffffffff168373ffffffffffffffffffffffffffffffffffffffff161415611230576040517f08c379a000000000000000000000000000000000000000000000000000000000815260040161122790612499565b60405180910390fd5b600073ffffffffffffffffffffffffffffffffffffffff168273ffffffffffffffffffffffffffffffffffffffff1614156112a0576040517f08c379a00000000000000000000000000000000000000000000000000000000081526004016112979061252b565b60405180910390fd5b6112ab838383611862565b60008060008573ffffffffffffffffffffffffffffffffffffffff1673ffffffffffffffffffffffffffffffffffffffff16815260200190815260200160002054905081811015611331576040517f08c379a0000000000000000000000000000000000000000000000000000000008152600401611328906125bd565b60405180910390fd5b8181036000808673ffffffffffffffffffffffffffffffffffffffff1673ffffffffffffffffffffffffffffffffffffffff16815260200190815260200160002081905550816000808573ffffffffffffffffffffffffffffffffffffffff1673ffffffffffffffffffffffffffffffffffffffff16815260200190815260200160002060008282546113c49190611f00565b925050819055508273ffffffffffffffffffffffffffffffffffffffff168473ffffffffffffffffffffffffffffffffffffffff167fddf252ad1be2c89b69c2b068fc378daa952ba7f163c4a11628f55a4df523b3ef846040516114289190611af7565b60405180910390a361143b848484611867565b50505050565b600073ffffffffffffffffffffffffffffffffffffffff168273ffffffffffffffffffffffffffffffffffffffff1614156114b1576040517f08c379a00000000000000000000000000000000000000000000000000000000081526004016114a89061264f565b60405180910390fd5b6114bd82600083611862565b60008060008473ffffffffffffffffffffffffffffffffffffffff1673ffffffffffffffffffffffffffffffffffffffff16815260200190815260200160002054905081811015611543576040517f08c379a000000000000000000000000000000000000000000000000000000000815260040161153a906126e1565b60405180910390fd5b8181036000808573ffffffffffffffffffffffffffffffffffffffff1673ffffffffffffffffffffffffffffffffffffffff16815260200190815260200160002081905550816002600082825461159a9190612701565b92505081905550600073ffffffffffffffffffffffffffffffffffffffff168373ffffffffffffffffffffffffffffffffffffffff167fddf252ad1be2c89b69c2b068fc378daa952ba7f163c4a11628f55a4df523b3ef846040516115ff9190611af7565b60405180910390a361161383600084611867565b505050565b6000600560009054906101000a900473ffffffffffffffffffffffffffffffffffffffff16905081600560006101000a81548173ffffffffffffffffffffffffffffffffffffffff021916908373ffffffffffffffffffffffffffffffffffffffff1602179055508173ffffffffffffffffffffffffffffffffffffffff168173ffffffffffffffffffffffffffffffffffffffff167f8be0079c531659141344cd1fd0a4f28419497f9722a3daafe3b4186f6b6457e060405160405180910390a35050565b6001816000016000828254019250508190555050565b600081600001549050919050565b600073ffffffffffffffffffffffffffffffffffffffff168273ffffffffffffffffffffffffffffffffffffffff161415611772576040517f08c379a000000000000000000000000000000000000000000000000000000000815260040161176990612781565b60405180910390fd5b61177e60008383611862565b80600260008282546117909190611f00565b92505081905550806000808473ffffffffffffffffffffffffffffffffffffffff1673ffffffffffffffffffffffffffffffffffffffff16815260200190815260200160002060008282546117e59190611f00565b925050819055508173ffffffffffffffffffffffffffffffffffffffff16600073ffffffffffffffffffffffffffffffffffffffff167fddf252ad1be2c89b69c2b068fc378daa952ba7f163c4a11628f55a4df523b3ef8360405161184a9190611af7565b60405180910390a361185e60008383611867565b5050565b505050565b505050565b82805461187890611e0d565b90600052602060002090601f01602090048101928261189a57600085556118e1565b82601f106118b357805160ff19168380011785556118e1565b828001600101855582156118e1579182015b828111156118e05782518255916020019190600101906118c5565b5b5090506118ee91906118f2565b5090565b5b8082111561190b5760008160009055506001016118f3565b5090565b600081519050919050565b600082825260208201905092915050565b60005b8381101561194957808201518184015260208101905061192e565b83811115611958576000848401525b50505050565b6000601f19601f8301169050919050565b600061197a8261190f565b611984818561191a565b935061199481856020860161192b565b61199d8161195e565b840191505092915050565b600060208201905081810360008301526119c2818461196f565b905092915050565b6000604051905090565b600080fd5b600080fd5b600073ffffffffffffffffffffffffffffffffffffffff82169050919050565b6000611a09826119de565b9050919050565b611a19816119fe565b8114611a2457600080fd5b50565b600081359050611a3681611a10565b92915050565b6000819050919050565b611a4f81611a3c565b8114611a5a57600080fd5b50565b600081359050611a6c81611a46565b92915050565b60008060408385031215611a8957611a886119d4565b5b6000611a9785828601611a27565b9250506020611aa885828601611a5d565b9150509250929050565b60008115159050919050565b611ac781611ab2565b82525050565b6000602082019050611ae26000830184611abe565b92915050565b611af181611a3c565b82525050565b6000602082019050611b0c6000830184611ae8565b92915050565b600080600060608486031215611b2b57611b2a6119d4565b5b6000611b3986828701611a27565b9350506020611b4a86828701611a27565b9250506040611b5b86828701611a5d565b9150509250925092565b600060ff82169050919050565b611b7b81611b65565b82525050565b6000602082019050611b966000830184611b72565b92915050565b600060208284031215611bb257611bb16119d4565b5b6000611bc084828501611a5d565b91505092915050565b600060208284031215611bdf57611bde6119d4565b5b6000611bed84828501611a27565b91505092915050565b611bff816119fe565b82525050565b6000602082019050611c1a6000830184611bf6565b92915050565b60008060408385031215611c3757611c366119d4565b5b6000611c4585828601611a27565b9250506020611c5685828601611a27565b9150509250929050565b600080fd5b600080fd5b7f4e487b7100000000000000000000000000000000000000000000000000000000600052604160045260246000fd5b611ca28261195e565b810181811067ffffffffffffffff82111715611cc157611cc0611c6a565b5b80604052505050565b6000611cd46119ca565b9050611ce08282611c99565b919050565b600067ffffffffffffffff821115611d0057611cff611c6a565b5b611d098261195e565b9050602081019050919050565b82818337600083830152505050565b6000611d38611d3384611ce5565b611cca565b905082815260208101848484011115611d5457611d53611c65565b5b611d5f848285611d16565b509392505050565b600082601f830112611d7c57611d7b611c60565b5b8135611d8c848260208601611d25565b91505092915050565b600060208284031215611dab57611daa6119d4565b5b600082013567ffffffffffffffff811115611dc957611dc86119d9565b5b611dd584828501611d67565b91505092915050565b7f4e487b7100000000000000000000000000000000000000000000000000000000600052602260045260246000fd5b60006002820490506001821680611e2557607f821691505b60208210811415611e3957611e38611dde565b5b50919050565b7f45524332303a207472616e7366657220616d6f756e742065786365656473206160008201527f6c6c6f77616e6365000000000000000000000000000000000000000000000000602082015250565b6000611e9b60288361191a565b9150611ea682611e3f565b604082019050919050565b60006020820190508181036000830152611eca81611e8e565b9050919050565b7f4e487b7100000000000000000000000000000000000000000000000000000000600052601160045260246000fd5b6000611f0b82611a3c565b9150611f1683611a3c565b9250827fffffffffffffffffffffffffffffffffffffffffffffffffffffffffffffffff03821115611f4b57611f4a611ed1565b5b828201905092915050565b7f4f776e61626c653a2063616c6c6572206973206e6f7420746865206f776e6572600082015250565b6000611f8c60208361191a565b9150611f9782611f56565b602082019050919050565b60006020820190508181036000830152611fbb81611f7f565b9050919050565b6000604082019050611fd76000830185611ae8565b611fe46020830184611bf6565b9392505050565b7f45524332303a206275726e20616d6f756e74206578636565647320616c6c6f7760008201527f616e636500000000000000000000000000000000000000000000000000000000602082015250565b600061204760248361191a565b915061205282611feb565b604082019050919050565b600060208201905081810360008301526120768161203a565b9050919050565b7f45524332303a2064656372656173656420616c6c6f77616e63652062656c6f7760008201527f207a65726f000000000000000000000000000000000000000000000000000000602082015250565b60006120d960258361191a565b91506120e48261207d565b604082019050919050565b60006020820190508181036000830152612108816120cc565b9050919050565b7f4d7573742062652067726561746572207468616e207a65726f00000000000000600082015250565b600061214560198361191a565b91506121508261210f565b602082019050919050565b6000602082019050818103600083015261217481612138565b9050919050565b600061218682611a3c565b915061219183611a3c565b9250817fffffffffffffffffffffffffffffffffffffffffffffffffffffffffffffffff04831182151516156121ca576121c9611ed1565b5b828202905092915050565b7f20617761697420666f72206e6577207375727665790000000000000000000000600082015250565b600061220b60158361191a565b9150612216826121d5565b602082019050919050565b6000602082019050818103600083015261223a816121fe565b9050919050565b60006040820190506122566000830185611bf6565b8181036020830152612268818461196f565b90509392505050565b7f4f776e61626c653a206e6577206f776e657220697320746865207a65726f206160008201527f6464726573730000000000000000000000000000000000000000000000000000602082015250565b60006122cd60268361191a565b91506122d882612271565b604082019050919050565b600060208201905081810360008301526122fc816122c0565b9050919050565b7f45524332303a20617070726f76652066726f6d20746865207a65726f2061646460008201527f7265737300000000000000000000000000000000000000000000000000000000602082015250565b600061235f60248361191a565b915061236a82612303565b604082019050919050565b6000602082019050818103600083015261238e81612352565b9050919050565b7f45524332303a20617070726f766520746f20746865207a65726f20616464726560008201527f7373000000000000000000000000000000000000000000000000000000000000602082015250565b60006123f160228361191a565b91506123fc82612395565b604082019050919050565b60006020820190508181036000830152612420816123e4565b9050919050565b7f45524332303a207472616e736665722066726f6d20746865207a65726f20616460008201527f6472657373000000000000000000000000000000000000000000000000000000602082015250565b600061248360258361191a565b915061248e82612427565b604082019050919050565b600060208201905081810360008301526124b281612476565b9050919050565b7f45524332303a207472616e7366657220746f20746865207a65726f206164647260008201527f6573730000000000000000000000000000000000000000000000000000000000602082015250565b600061251560238361191a565b9150612520826124b9565b604082019050919050565b6000602082019050818103600083015261254481612508565b9050919050565b7f45524332303a207472616e7366657220616d6f756e742065786365656473206260008201527f616c616e63650000000000000000000000000000000000000000000000000000602082015250565b60006125a760268361191a565b91506125b28261254b565b604082019050919050565b600060208201905081810360008301526125d68161259a565b9050919050565b7f45524332303a206275726e2066726f6d20746865207a65726f2061646472657360008201527f7300000000000000000000000000000000000000000000000000000000000000602082015250565b600061263960218361191a565b9150612644826125dd565b604082019050919050565b600060208201905081810360008301526126688161262c565b9050919050565b7f45524332303a206275726e20616d6f756e7420657863656564732062616c616e60008201527f6365000000000000000000000000000000000000000000000000000000000000602082015250565b60006126cb60228361191a565b91506126d68261266f565b604082019050919050565b600060208201905081810360008301526126fa816126be565b9050919050565b600061270c82611a3c565b915061271783611a3c565b92508282101561272a57612729611ed1565b5b828203905092915050565b7f45524332303a206d696e7420746f20746865207a65726f206164647265737300600082015250565b600061276b601f8361191a565b915061277682612735565b602082019050919050565b6000602082019050818103600083015261279a8161275e565b905091905056fea264697066735822122045b2d175a14b28a44cb852a77f8a93f806c8f74fd2928da76ad7b1cd3f1eb8b864736f6c63430008090033",
  "immutableReferences": {},
  "source": "// SPDX-License-Identifier: MIT\npragma solidity ^0.8.2;\n\nimport \"@openzeppelin/contracts/utils/Counters.sol\";\nimport \"@openzeppelin/contracts/access/Ownable.sol\";\nimport \"@openzeppelin/contracts/token/ERC20/ERC20.sol\";\nimport \"@openzeppelin/contracts/token/ERC20/extensions/ERC20Burnable.sol\";\n\n/// @title QuizManager\n/// @author Roberto Garca.\n/// @notice Smart Contract for the control of tokens through a survey\ncontract QuizManager is ERC20, ERC20Burnable, Ownable {\n\n    /// @dev libraries for utils tools \n    using Counters for Counters.Counter;\n    /// @notice control for index responses\n    Counters.Counter private id;\n    /// @dev timer for new survey\n    uint public frezz = 24 * 1 hours;\n    /// @notice There is a fee    \n    uint public fee =  1 * 10 ** 18;\n\n    struct Response{\n        address owner;\n        string data;\n        uint datetime;\n    }\n    /// @notice Emitted when a change is made to the quota.\n    /// @param newFee new declared quote\n    /// @param account account modifying the quota\n    event LogChangeFee(uint256 newFee, address account);\n    /// @notice Emmited when a user add new response.\n    /// @param account account for response survey\n    /// @param response survey data\n    event NewResponse(address account, string response);\n\n    mapping (address=>uint) lastSurveyDate;\n    mapping (uint=>Response) responses;\n    mapping (address=>uint[]) responsesByOwner;\n    constructor() ERC20(\"QUIZ\", \"QUIZ\") {}\n\n    /// @notice changes the time lag between surveys\n    /// @param _hours time in hours\n    function changeFrezzTime(uint _hours) \n        public\n        onlyOwner\n    {\n        require(_hours > 0, \"Must be greater than zero\");\n        frezz = _hours * 1 hours;\n    }\n    /// @notice Update fee   \n    /// @param newFee new fee\n    function changeFee(uint newFee)\n        public\n        onlyOwner\n    {   \n        fee = newFee;\n        emit LogChangeFee(newFee, _msgSender());\n    }\n    /// @dev validates if the user can perform a survey\n    /// @return bool boolean status\n    function surveyAvailable()\n        public \n        view\n        returns(bool)\n    {\n        return block.timestamp > lastSurveyDate[_msgSender()] + frezz ? true  : false;\n    }\n    /// @notice add responses add state.\n    /// @param response survey data.\n    /// @return bool boolean status\n    function addSurvey(string memory response)\n        public \n        returns(bool)    \n    {\n        require(block.timestamp > lastSurveyDate[_msgSender()] + frezz , \" await for new survey\");\n        \n        id.increment();\n        \n        responses[id.current()] = Response({\n            owner: _msgSender(),\n            data: response,\n            datetime: block.timestamp\n        });\n\n        responsesByOwner[_msgSender()].push(id.current());\n        lastSurveyDate[_msgSender()] = block.timestamp;\n\n        _mint(_msgSender(), fee);\n\n        emit NewResponse(_msgSender(), response);\n\n        return true;\n    }\n}",
  "sourcePath": "/Users/jrgarciasa/extraHours/repos/survey-challenge/contracts/QuizManager.sol",
  "compiler": {
    "name": "solc",
    "version": "0.8.9+commit.e5eed63a.Emscripten.clang"
  },
  "schemaVersion": "3.4.3",
  "updatedAt": "2022-02-12T15:44:14.067Z",
  "devdoc": {
    "author": "Roberto Garca.",
    "events": {
      "LogChangeFee(uint256,address)": {
        "params": {
          "account": "account modifying the quota",
          "newFee": "new declared quote"
        }
      },
      "NewResponse(address,string)": {
        "params": {
          "account": "account for response survey",
          "response": "survey data"
        }
      }
    },
    "kind": "dev",
    "methods": {
      "addSurvey(string)": {
        "params": {
          "response": "survey data."
        },
        "returns": {
          "_0": "bool boolean status"
        }
      },
      "allowance(address,address)": {
        "details": "See {IERC20-allowance}."
      },
      "approve(address,uint256)": {
        "details": "See {IERC20-approve}. Requirements: - `spender` cannot be the zero address."
      },
      "balanceOf(address)": {
        "details": "See {IERC20-balanceOf}."
      },
      "burn(uint256)": {
        "details": "Destroys `amount` tokens from the caller. See {ERC20-_burn}."
      },
      "burnFrom(address,uint256)": {
        "details": "Destroys `amount` tokens from `account`, deducting from the caller's allowance. See {ERC20-_burn} and {ERC20-allowance}. Requirements: - the caller must have allowance for ``accounts``'s tokens of at least `amount`."
      },
      "changeFee(uint256)": {
        "params": {
          "newFee": "new fee"
        }
      },
      "changeFrezzTime(uint256)": {
        "params": {
          "_hours": "time in hours"
        }
      },
      "decimals()": {
        "details": "Returns the number of decimals used to get its user representation. For example, if `decimals` equals `2`, a balance of `505` tokens should be displayed to a user as `5.05` (`505 / 10 ** 2`). Tokens usually opt for a value of 18, imitating the relationship between Ether and Wei. This is the value {ERC20} uses, unless this function is overridden; NOTE: This information is only used for _display_ purposes: it in no way affects any of the arithmetic of the contract, including {IERC20-balanceOf} and {IERC20-transfer}."
      },
      "decreaseAllowance(address,uint256)": {
        "details": "Atomically decreases the allowance granted to `spender` by the caller. This is an alternative to {approve} that can be used as a mitigation for problems described in {IERC20-approve}. Emits an {Approval} event indicating the updated allowance. Requirements: - `spender` cannot be the zero address. - `spender` must have allowance for the caller of at least `subtractedValue`."
      },
      "increaseAllowance(address,uint256)": {
        "details": "Atomically increases the allowance granted to `spender` by the caller. This is an alternative to {approve} that can be used as a mitigation for problems described in {IERC20-approve}. Emits an {Approval} event indicating the updated allowance. Requirements: - `spender` cannot be the zero address."
      },
      "name()": {
        "details": "Returns the name of the token."
      },
      "owner()": {
        "details": "Returns the address of the current owner."
      },
      "renounceOwnership()": {
        "details": "Leaves the contract without owner. It will not be possible to call `onlyOwner` functions anymore. Can only be called by the current owner. NOTE: Renouncing ownership will leave the contract without an owner, thereby removing any functionality that is only available to the owner."
      },
      "surveyAvailable()": {
        "details": "validates if the user can perform a survey",
        "returns": {
          "_0": "bool boolean status"
        }
      },
      "symbol()": {
        "details": "Returns the symbol of the token, usually a shorter version of the name."
      },
      "totalSupply()": {
        "details": "See {IERC20-totalSupply}."
      },
      "transfer(address,uint256)": {
        "details": "See {IERC20-transfer}. Requirements: - `recipient` cannot be the zero address. - the caller must have a balance of at least `amount`."
      },
      "transferFrom(address,address,uint256)": {
        "details": "See {IERC20-transferFrom}. Emits an {Approval} event indicating the updated allowance. This is not required by the EIP. See the note at the beginning of {ERC20}. Requirements: - `sender` and `recipient` cannot be the zero address. - `sender` must have a balance of at least `amount`. - the caller must have allowance for ``sender``'s tokens of at least `amount`."
      },
      "transferOwnership(address)": {
        "details": "Transfers ownership of the contract to a new account (`newOwner`). Can only be called by the current owner."
      }
    },
    "stateVariables": {
      "frezz": {
        "details": "timer for new survey"
      }
    },
    "title": "QuizManager",
    "version": 1
  },
  "userdoc": {
    "events": {
      "LogChangeFee(uint256,address)": {
        "notice": "Emitted when a change is made to the quota."
      },
      "NewResponse(address,string)": {
        "notice": "Emmited when a user add new response."
      }
    },
    "kind": "user",
    "methods": {
      "addSurvey(string)": {
        "notice": "add responses add state."
      },
      "changeFee(uint256)": {
        "notice": "Update fee   "
      },
      "changeFrezzTime(uint256)": {
        "notice": "changes the time lag between surveys"
      },
      "fee()": {
        "notice": "There is a fee    "
      }
    },
    "notice": "Smart Contract for the control of tokens through a survey",
    "version": 1
  }
}